:100000000C945D000C94EA0E0C94B00E0C94020B50
:100010000C94AC0A0C94EA0E0C94EA0E0C94800A30
:100020000C94EA0E0C94FC090C94280A0C94540AC3
:100030000C94EA0E0C94EA0E0C94EA0E0C94EA0E60
:100040000C94EA0E0C94EA0E0C94EA0E0C94EA0E50
:100050000C94EA0E0C94EA0E0C94EA0E0C94EA0E40
:100060000C94EA0E0C94EA0E0C94EA0E0C94EA0E30
:100070000C94EA0E0C9413070C94EA0E0C94560B95
:100080000C947F0B0C94DD0D0C94EA0E0C94EA0E8C
:10009000280028258028252855001DF8285528796E
:1000A0008028792885001E28288528878028872889
:1000B00089001E3428892898800011241FBECFEFA4
:1000C000CDBFDFE3DEBFE0E9F0E040E017C0B5916F
:1000D000A59135912591059107FD0CC095918591CC
:1000E000EF01F92FE82F05900D92A217B307D9F76A
:1000F000FE0104C01D92A217B307E1F7E93BF40724
:0E01000031F70E9468070C94550EF894FFCF5B
:10010E00AEE0B0E0EDE8F0E00C94270D4C016B0191
:10011E0019821A828FEF9FEF8B839C831D821E8222
:10012E004F83588729873A87A12CB12CD6016D9021
:10013E007C90F301EA0DFB1D808181110FC0D60169
:10014E00ED93FC938081853209F0D3C13F01BFEF5F
:10015E006B1A7B0AF6016082718219C0853279F3BF
:10016E00B401082E000C990B0E94B7074FEFA41A8A
:10017E00B40ADCCF8C32ACF08D32F9F489819A81DD
:10018E00816089839A833196D601ED93FC93D601D3
:10019E00ED91FC9180818B3269F789819A8184601F
:1001AE00F0CF803221F489819A818860EACF833240
:1001BE0051F489819A818061E4CF803321F4898161
:1001CE009A818260DECFB701C6010E94A1098D839C
:1001DE009E8397FF0BC029813A81B1E02B2729839B
:1001EE003A839195819591098D839E8389819A8118
:1001FE0080FF03C08D7F89839A83D601ED91FC9198
:10020E00119780818E3249F43196ED93FC93B701AC
:10021E00C6010E94A1098B839C83C6010E945B0CC0
:10022E00582ED601ED91FC918081082E000C990B71
:10023E000E94950E893609F443C084F4833609F47E
:10024E0002C134F4853209F427C18136E1F030C1A0
:10025E008436B1F188360CF4D9C02AC1803709F43E
:10026E009AC03CF48E3609F4BCC08F3609F461C0D6
:10027E001FC1853709F440C0883709F476C083372B
:10028E0009F016C1F3C0652D70E0A701CE010B96E3
:10029E000E940000892B09F426C1D601ED91FC9134
:1002AE001197CF0101968D939C932081AE01455FEE
:1002BE005F4FBE016F5F7F4FC4010E94000010C1EF
:1002CE00652D70E0970141E050E0CE010B960E9443
:1002DE00ED05892B09F407C1F60180819181019604
:1002EE0080839183AE01455F5F4FBE016F5F7F4F8D
:1002FE00C4010E947B05F4C0652D70E0970140E0BB
:10030E0050E0CE010B960E94ED05892B09F4EBC04F
:10031E00D6018D919C91119701968D939C93AE0170
:10032E00455F5F4FBE016F5F7F4FC4010E940008A3
:10033E00D7C0652D70E0970140E050E0CE010B96DE
:10034E000E94ED05892B09F4CEC0F60180819181C2
:10035E00019680839183AE01455F5F4FBE016F5F53
:10036E007F4FC4010E94BA06BBC0652D70E0970195
:10037E0040E050E0CE010B960E94ED05892B09F46A
:10038E00B2C0D601ED91FC911197CF0101968D93DC
:10039E009C9320811CC0970140E050E060EF70E01C
:1003AE00CE010B960E94ED05892B09F49CC0F60137
:1003BE00808191810196808391838B859C85892B89
:1003CE0029F420E030E04EEC5DE584C028E7AE0174
:1003DE00455F5F4FBE016F5F7F4FC4010E94E30315
:1003EE007FC0A501400F511F652D70E09701CE0112
:1003FE000B960E940000892B09F475C0D6018D91D1
:10040E009C91119701968D939C9373C0652D70E00E
:10041E00A701CE010B960E940000892B09F463C040
:10042E00D601ED91FC911197CF0101968D939C937E
:10043E002081AE01455F5F4FBE016F5F7F4FC401EC
:10044E000E9400004DC0B0E85B124DC0F6018081E5
:10045E009181019680839183D701ED91FC91119743
:10046E00CF0102968D939C93808120C0B0E85B12E1
:10047E003AC0F60180819181019680839183D701E4
:10048E00ED91FC911197CF0102968D939C93408133
:10049E00518120E030E01EC0B0E85B1224C0F601AE
:1004AE00208131812F5F3F4F208331838B870DC099
:1004BE0085E28B87D6016D927C9219821A821D82FB
:1004CE001E828FEF9FEF8B839C8321E030E0AE0185
:1004DE00455F5F4FBE016F5F7F4FC4010E942C0BC3
:1004EE008A0D9B1D07C0F601808191810196808344
:0C04FE009183C5012E96EFE00C94880D50
:10050A0052474220436F6E74726F6C204170706C58
:10051A0069636174696F6E0A005B494E464F5D3AC2
:10052A00257300417574686F723A205175616E6760
:10053A0020486169204E677579656E0A00566572B2
:10054A0073696F6E3A20302E39390A005374617418
:10055A00653A20544350207365727665720A0053D7
:10056A00746174653A2070726F766973696F6E6927
:10057A006E670A0053746174653A2077696666206B
:10058A00697320646561637469766174650A0053EE
:10059A00746174653A206572726F720A005B444531
:1005AA004255475D3A49503A2025643A25643A252E
:1005BA00643A25640A005B494E464F5D3A25733A10
:1005CA002025730A002A2A2A2A2A2A2A2A2A2A2A91
:1005DA002A2A2A2A2A2A2A2A2A2A2A2A2A2A2A2A71
:1005EA002A2A2A2A2A2A2A2A2A2A2A2A2A2A2A2A61
:1005FA002A0A0053797374656D20696E697469619A
:10060A006C697A65640A005B494E464F5D3A434C11
:10061A00492076657273696F6E20253032642E2503
:10062A003032642E253032640A0054797065206DA8
:10063A00656E7520746F207072696E7420746865B7
:10064A00206C697374206F6620636F6D6D616E64D0
:10065A000D0A00636F6D6D616E64206E6F742066A3
:10066A006F756E640D0A0063616E6E6F7420616C43
:10067A006C6F63617465206D656D6F727920666F4A
:10068A0072207769666920696E746572666163654E
:10069A000A006170706C69636174696F6E2F6170B2
:1006AA00706C69636174696F6E2E63005B455252A8
:1006BA004F525D3A25733A3A257328256429202535
:1006CA0073004E6574776F726B20697320696E6967
:1006DA007469616C697A65640A0063616E6E6F742D
:1006EA0020616C6C6F63617465206D656D6F7279E2
:1006FA0020666F7220746370207365727665720A61
:10070A0000544350207365727665722069732069BC
:10071A006E697469616C697A65640A0053746172FE
:10072A00742050726F766973696F6E0A004E657431
:10073A00776F726B206973206465696E6974696189
:10074A006C697A65640A00696E666F005072696E38
:10075A0074206170706C69636174696F6E20696E70
:10076A00666F007374617465005072696E742073E9
:10077A0074617465206F6620746865206170706C9E
:10078A0069636174696F6E006970005072696E7492
:10079A0020746865204950206F662074686520615E
:1007AA0070706C69636174696F6E006D656E750057
:0B07BA005072696E74206D656E750052
:1007C600AFE0B0E0E9EEF3E00C94240D1C016B0100
:1007D60049835A832B83FB01828193818480958090
:1007E60000811181A680B78097FD02C00D7F02C0EF
:1007F60081E090E0E981FA814080518062807380D7
:100806009801207133272C833D83740104FF08C0AF
:10081600411451046104710419F032E0E31AF1083D
:10082600F801E870FF27EE83FF8303FF03C0F1E0C2
:10083600EF1AF108F6010084F185E02D3197EE8775
:10084600FF87EA0DFB1D10829C012E193F092887A0
:100856003987C801827099278A879B87EB818E2FFB
:10086600EE0F990B9C01215431092C873D872E856B
:100876003F852230310530F48C819D81892B09F02A
:1008860042C05CC0411451046104710461F18E855B
:100896009F8501978E879F87C2018F7099278A301F
:1008A600910514F4C09602C0895A9F4FEC85FD85C8
:1008B6007A9748F49C012062215631092A31310584
:1008C60010F40E94740EEE85FF85EA0DFB1D8083F1
:1008D600F1E0EF1AF10884E0769467945794479410
:1008E6008A95D1F7C4CF888599858E0D9F1D1816D8
:1008F60019066CF21E141F040CF0BECFEA85FB85A8
:10090600EF2B29F6B9CFE981FA8180819181A28105
:10091600B381892B8A2B8B2B89F0EE85FF85EA0D17
:10092600FB1D31972B8120838E859F8502978E87AD
:100936009F87FC01EA0DFB1D80E38083EE81FF812A
:10094600EF2B59F02E853F85215031092E873F87A1
:10095600F901EA0DFB1D80E28083F6014085518591
:10096600415051092E853F85421B530BB9016A0D33
:100976007B1D9401C1010E9402099C01F101808145
:10098600918190FF06C0F6018281938182179307B9
:0C0996000CF4C9012F96E2E10C94850DD1
:1009A2000F931F93CF93DF930E943B0940E054E0E3
:1009B2008EEDFA01808320E234E0F901108280E4B6
:1009C20094E066E0FC016083C0E6D4E06AE56883F7
:1009D200A0E8B4E01C9200EA14E069E1F801608347
:1009E20060E8FA016483F9011482FC0114821C821A
:1009F20014961C921497F8011482FA01108A118A33
:100A0200128A138A148A158A168A178AF901108A99
:100A1200118A128A138A148A158A168A178AFC0185
:100A2200108A118A128A138A148A158A168A178AD8
:100A3200188A198A1A8A1B8A1C8A1D8A1E8A1F8A88
:100A420050961C92509751961C92519752961C9216
:100A5200529753961C92539754961C9254975596BC
:100A62001C92559756961C92569757961C92F801CF
:100A7200108A118A8BE0828B138A148A83E0858B19
:100A8200868B178AE0EEF5E01182108282E0848381
:100A92001582138212828EEE9EE0809377289093C5
:100AA20078288FEE9EE0809375289093762880EFC9
:100AB2009EE0809373289093742881EF9EE0809348
:100AC20071289093722882EF9EE080936F28909312
:100AD200702883EF9EE080936D2890936E2884EFB8
:100AE2009EE080936B2890936C28DF91CF911F91A9
:040AF2000F910895C3
:100AF600A2E0B0E0E1E8F5E00C94240D3C016B01C6
:100B0600FB0122813381A480B58080819181898314
:100B16009A8386809780FA012080318042805380B4
:100B2600B201A10157FE07C044275527BA01421951
:100B360053096409750937FD03C08D7F89839A833C
:100B4600950157FC05C0898182FD02C083FF02C062
:100B560021503109CE0101967C010AE010E0C60160
:100B66000E94550657FC03C0298122FF0AC001973F
:100B7600F401E80FF91F57FC02C02BE209C02DE271
:100B860007C023FF06C00197F401E80FF91F20E212
:100B9600208309811A81F60140855185415051090A
:100BA600481B590BB401680F791F9501C3010E94B8
:100BB60002099C01F3018081918190FF06C0F60134
:100BC60082819381821793070CF4C9012296E2E190
:040BD6000C94850DE9
:100BDA00CF93DF93DC01F90168387105F1F05CF419
:100BEA006138710561F164387105A1F160387105E8
:100BFA0009F051C02FC0603C710509F441C0603F43
:100C0A007105F1F1603A710509F045C0C081D181E1
:100C1A00CE0102968083918325C0C081D181CE0105
:100C2A00029680839183452B39F04881042E000C6B
:100C3A00550B660B770B1CC0488150E029C0C08158
:100C4A00D181CE01049680839183488159816A813A
:100C5A007B810EC0C081D181CE01029680839183AF
:100C6A00452BA1F048815981052E000C660B770BA4
:100C7A004D935D936D937C93139781E090E00DC043
:100C8A00C081D181CE0102968083918348815981A6
:100C9A0060E070E0EDCF80E090E0DF91CF910895C1
:100CAA00A0E0B0E0EBE5F6E00C94260DDC012801AB
:100CBA001696AD90BC901797F70180819181129694
:100CCA00ED91FC9113971896CD91DC911997219784
:100CDA00F7FF02C0E1E0F0E0CA0DDB1D18826901EE
:100CEA00A1E0B0E08F01021B130B4C01F2E08F224E
:100CFA009924052C000C66087708CE018A199B09ED
:100D0A00CA15DB0519F1411551056105710589F00F
:100D1A00CB01BA01A30192010E94390CCA01A62F84
:100D2A00B72F605D6A9341E0C41AD108A901BC01DA
:100D3A00E4CF98012C0D3D1D121613064CF31C141A
:100D4A001D0434F48114910419F702C080E090E084
:100D5A00AB2B31F4F701208131812F7E208331833F
:0A0D6A00CDB7DEB7E0E10C94870D71
:100D7400A2E0B0E0E0ECF6E00C94280D4C016B012D
:100D8400FB01228133816480758080819181898314
:100D94009A83A680B78037FD03C08D7F89839A83A9
:100DA400FA014081518162817381CE0101967C01F7
:100DB40008E010E09301C6010E945506298124FF32
:100DC40006C00197F501E80FF91F20E3208329816C
:100DD40023FF06C00197F501E80FF91F20E22083E5
:100DE40009811A81F6014085518541505109481BFA
:100DF400590BB501680F791F9301C4010E940209C0
:100E04009C01F4018081918190FF06C0F6018281EA
:100E14009381821793070CF4C9012296EEE00C9497
:020E2400890D36
:100E26001F920F920FB60F9211242F933F934F9359
:100E36005F936F937F938F939F93AF93BF93EF933C
:100E4600FF93BE9B05C0E0917728F091782809951D
:100E5600B99B05C0E0917528F09176280995B89B55
:100E660005C0E0917328F09174280995BB9B05C0D5
:100E7600E0917128F09172280995BA9B05C0E0911E
:100E86006F28F09170280995BD9B05C0E0916D28EB
:100E9600F0916E280995BC9B05C0E0916B28F091F6
:100EA6006C2809958FEF87BBFF91EF91BF91AF91AA
:100EB6009F918F917F916F915F914F913F912F916C
:0A0EC6000F900FBE0F901F901895BB
:100ED0000E94C80D78940E94C7080E9472090F2EC4
:100EE000F5E0AF2EF4E0BF2EF02D6894882482F850
:100EF000582C06E014E06894992493F8692CC6E60F
:100F0000D4E06894EE24E6F87E2C6894FF24F4F88C
:100F10000F2EF5E6CF2EF4E0DF2EF02DF5015082F6
:100F2000F80160827882F88285E090E00E944A0EA3
:100F3000F8018082F5019082E882F88285E090E0F5
:100F40000E944A0EF80180829082F601E082F882C7
:100F500085E090E00E944A0EF80180829082E8824B
:0E0F6000F601F08285E090E00E944A0ED7CFA5
:100F6E000F931F93CF93DF93DB012D913C9111973C
:100F7E0030FF25C016964D915C91179714962D91C2
:100F8E003C9115974217530778F41296ED91FC9108
:100F9E001397808312962D913C9113972F5F3F4F9D
:100FAE0012962D933C93139716962D913C9117976D
:100FBE002F5F3F4F16962D933C93179715C01C9697
:100FCE00ED91FC911D97309719F48FEF9FEF0CC0A8
:100FDE008B01EC010995892BC1F7F8018681978168
:100FEE00019686839783CE01DF91CF911F910F914A
:020FFE00089554
:10100000A2E0B0E0E6E0F8E00C94280D5C016B0192
:10101000FB01228133818480958080819181898345
:101020009A836680778037FD03C08D7F89839A839A
:10103000FA014081518162817381CE0101967C0168
:101040000AE010E09401C6010E94550609811A8148
:10105000F6014085518541505109481B590BB30198
:10106000680F791F9401C5010E9402099C01F501D6
:101070008081918190FF06C0F60182819381821761
:0E10800093070CF4C9012296EEE00C94890D42
:10108E0080918B28833079F486E595E49F938F9336
:10109E0083E295E49F938F930E94550D0F900F90CE
:1010AE000F900F900895843079F489E695E49F931C
:1010BE008F9383E295E49F938F930E94550D0F902B
:1010CE000F900F900F900895863079F48EE795E487
:1010DE009F938F9383E295E49F938F930E94550D78
:1010EE000F900F900F900F90089589E995E49F93BC
:1010FE008F9383E295E49F938F930E94550D0F90EB
:08110E000F900F900F9008955F
:10111600A2E8B0E0E1E9F8E00C942A0D5C014A018E
:10112600CF57DF4F68837983C158D040C12CD12C6B
:10113600CF57DF4FE881F981C158D040808188239D
:10114600E9F07401860120E830E0AE014F5F5F4FA1
:10115600BE016F577F4FC5010E9487008C0D9D1DF4
:101166008C159D054CF48FE490E080930F289093A6
:1011760010288FEF9FEF03C06C01DACFC601CE5760
:08118600DF4FECE00C948B0D2F
:10118E00CF93DF930E94AA0E61E08DE99EE00E944C
:10119E00ED0D8CEF9DE00E94C80E83EB9DE00E944A
:1011AE00CD0E8FEC95E49F938F93C3E2D5E4DF933E
:1011BE00CF930E943D0D8DEF95E49F938F93DF9318
:1011CE00CF930E943D0DE6E6F4E081E0808384E05B
:1011DE00808388E0808382E080830E94260E0E94B6
:1011EE000B0D0E94B60E8DB79EB708968DBF9EBF93
:0611FE00DF91CF9108957E
:10120400A0E0B0E0E8E0F9E00C942A0D6C015B0189
:101214007A01E901480181E08822992400FD03C094
:101224004217530750F0A701B501C6010E94B90C3B
:10123400EC16FD0610F0C70117C08E010E191F0928
:101244000115110541F0B60180E290E00E94B70754
:1012540001501109F5CF8114910429F4A701B501B6
:10126400C6010E94B90CCE01CDB7DEB7ECE00C94F8
:021274008B0DE0
:10127600E0E9F4E0808188608193E83984E0F8074A
:10128600C9F7E0EBF4E0808188608193E83B84E075
:10129600F807C9F7E0E1F4E0808188608193E831DE
:1012A60084E0F807C9F7E0E3F4E080818860819381
:1012B600E83384E0F807C9F7E0E5F4E08081886068
:1012C6008193E83584E0F807C9F7E0E7F4E0808128
:0E12D60088608193E83784E0F807C9F708952F
:1012E40064E085E398E20E947D0E4EE058E26DE0F2
:1012F40078E284E098E20E946B0E80910E281F929F
:101304008F9380910D281F928F93809104281F92B0
:101314008F9381E196E49F938F930E943D0D84E324
:1013240096E49F938F9383E295E49F938F930E9417
:0E1334003D0D8DB79EB70C968DBF9EBF0895E0
:10134200DC01ED91FC91119780818A3221F080E0DD
:1013520090E03AE00EC03196ED93FC93DB01ED9103
:10136200FC911197CF0102968D939C93808191817C
:101372000895ED91FC911197208120532A3068F451
:10138200389FA001399F500D1124CA01820F911D6F
:0C1392003196ED93FC931197ECCF089579
:10139E00EF92FF920F931F93CF93DF93C5E2D8E2A4
:1013AE000F2EF5E3EF2EF8E2FF2EF02D00EC15E4F4
:1013BE008B818F938A818F9389818F9388818F936D
:1013CE001F930F930E943D0D24960F900F900F9038
:1013DE000F900F900F90CE15DF0551F7DF91CF9143
:0A13EE001F910F91FF90EF900895FA
:1013F8001F920F920FB60F9211242F933F934F9382
:101408005F936F937F938F939F93AF93BF93EF9364
:10141800FF93E0917F28F0918028309709F0099593
:1014280080E180930B0AFF91EF91BF91AF919F915B
:101438008F917F916F915F914F913F912F910F9075
:081448000FBE0F901F901895D4
:101450001F920F920FB60F9211242F933F934F9329
:101460005F936F937F938F939F93AF93BF93EF930C
:10147000FF93E0917D28F0917E28309709F009953F
:1014800080E280930B0AFF91EF91BF91AF919F9102
:101490008F917F916F915F914F913F912F910F901D
:0814A0000FBE0F901F9018957C
:1014A8001F920F920FB60F9211242F933F934F93D1
:1014B8005F936F937F938F939F93AF93BF93EF93B4
:1014C800FF93E0917B28F0917C28309709F00995EB
:1014D80080E480930B0AFF91EF91BF91AF919F91A8
:1014E8008F917F916F915F914F913F912F910F90C5
:0814F8000FBE0F901F90189524
:101500001F920F920FB60F9211242F933F934F9378
:101510005F936F937F938F939F93AF93BF93EF935B
:10152000FF93E0917928F0917A28309709F0099596
:1015300081E080930B0AFF91EF91BF91AF919F9152
:101540008F917F916F915F914F913F912F910F906C
:081550000FBE0F901F901895CB
:101558001F920F920FB60F9211242F933F934F9320
:101568005F936F937F938F939F93AF93BF93EF9303
:10157800FF93E0918528F0918628309709F0099526
:1015880081E080934301FF91EF91BF91AF919F91CB
:101598008F917F916F915F914F913F912F910F9014
:0815A8000FBE0F901F90189573
:1015B000CF93DF9300D000D0CDB7DEB7E0910728FE
:1015C000F09108280684F785E02DCE010196099553
:1015D0008C811F928F938B811F928F938A811F9290
:1015E0008F9389811F928F9387EA95E49F938F93BE
:1015F0000E943D0DCDBFDEBF2496CDBFDEBFDF9183
:04160000CF910895E9
:101604001F921FB61F9211248F939F93AF93BF9382
:101614008091430180FF13C08091652890916628D2
:10162400A0916728B09168280196A11DB11D8093EF
:10163400652890936628A0936728B093682881E072
:1016440080934301BF91AF919F918F911F901FBED3
:041654001F90189536
:10165800A0E0B0E0E2E3FBE00C942C0D7C01FB0180
:10166800EA01C901A280B380C480D58000811181BC
:10167800209711F4C0ECDDE5009719F4CE010E9423
:10168800180EB7FC04C0A816B90608F4C5019601DF
:10169800AC01BE01C7010E940209CDB7DEB7EAE07E
:0416A8000C948D0D04
:1016AC001F920F920FB60F9211242F933F934F93CB
:1016BC005F936F937F938F939F93AF93BF93EF93AE
:1016CC00FF93E0918328F0918428309709F00995D5
:1016DC00FF91EF91BF91AF919F918F917F916F91FE
:1016EC005F914F913F912F910F900FBE0F901F90D4
:0216FC0018953F
:1016FE001F920F920FB60F9211242F933F934F9379
:10170E005F936F937F938F939F93AF93BF93EF935B
:10171E00FF93E0918128F0918228309709F0099586
:10172E00FF91EF91BF91AF919F918F917F916F91AB
:10173E005F914F913F912F910F900FBE0F901F9081
:02174E001895EC
:1017500040E068ED88E790E00E94DC0E40E068ED34
:101760008CE790E00E94DC0E40E068ED80E790E0BE
:101770000E94DC0E40E068ED81E690E00E94DC0E05
:1017800040E068ED80E690E00E94DC0E40E068ED0D
:0C17900082E690E00E94DC0E80E00895EC
:10179C00E0E4F8E086EB92E08087918780ED85832A
:1017AC0080EC868383E087831386148616861586E1
:1017BC0010929628109297281092952810929328A0
:1017CC001092942810929228E0918728F091882802
:0A17DC0085E498E28083918308956C
:1017E600CF93DF938AE095E49F938F93C3E2D5E48A
:1017F600DF93CF930E94550D8DE295E49F938F93CF
:10180600DF93CF930E94550D87E495E49F938F93C2
:10181600DF93CF930E94550D8DB79EB70C968DBF63
:081826009EBFDF91CF910895F0
:10182E00E0E0FAE085E090E080A791A712A613A66B
:10183E0014A615A610A211A283E18183128213822F
:10184E0014821582168217821686118681E182878E
:10185E0013868AE090E086A397A3178686E080839E
:04186E0080E0089579
:10187200A1E21A2EAA1BBB1BFD010DC0AA1FBB1F92
:10188200EE1FFF1FA217B307E407F50720F0A21B04
:10189200B30BE40BF50B661F771F881F991F1A9471
:1018A20069F760957095809590959B01AC01BD019B
:0418B200CF010895C5
:1018B600CF93DF93EC0190E0E92FF0E0EE0FFF1FEE
:1018C600E054F34A8081811102C081810EC0A88153
:1018D600B9812C91821305C091811196A883B98391
:1018E60001C09F5F9B3040F3892FDF91CF91089510
:1018F60080919228882389F0E0919328EF5FE77022
:10190600E0939328F0E0EB5AF74D808180934208EC
:1019160080919228815080939228809192288111FB
:0E19260005C0E0E4F8E085818F7D858308959B
:10193400209194282F5F2770909192289830E1F39A
:10194400E22FF0E0EB5AF74D8083209394280FB6F2
:10195400F8940F92809192288F5F809392280F9031
:0E1964000FBEE0E4F8E085818062858308957F
:10197200A0E0B0E0EFEBFCE00C942E0D6C01EB016B
:101982008A017B01E40EF51ECE15DF0541F0899137
:10199200B601082E000C990B0E94B707F5CFC801BB
:0A19A200CDB7DEB7E8E00C948F0D1E
:1019AC008A3011F08D3029F481E08093902880E00A
:1019BC00089590918F28943129F481E08093902898
:1019CC0082E00895E92FF0E0EF5EF74D80839F5F92
:0819DC0090938F2880E008952C
:1019E400E0E4F1E081818111FDCFE0E4F1E01486CF
:1019F4001586108611868FEF9FEF82879387178253
:101A0400158281E08283108A158A128A808380E09D
:021A1400089533
:101A16000E94BC0EE0E4F1E081818111FDCFE0E49B
:101A2600F1E08281816082838FE190E082879387F3
:101A360010926528109266281092672810926828DE
:021A4600089501
:101A48002F923F924F925F926F927F928F929F92C6
:101A5800AF92BF92CF92DF92EF92FF920F931F93B4
:101A6800CF93DF93CDB7DEB7CA1BDB0BCDBFDEBF8D
:021A78000994CF
:101A7A00A0E0B0E0E3E4FDE00C94340DAE014B5F6E
:101A8A005F4FFA0161917191AF01E0918728F0915E
:101A9A008828808191810E946D0DE2E00C94950D59
:101AAA00A0E0B0E0EBE5FDE00C94340DAE014B5F35
:101ABA005F4FFA0161917191AF01E0918728F0912E
:101ACA008828808191810E946D0DE2E00C94950D29
:101ADA00A2E0B0E0E3E7FDE00C94320D8C0149830B
:101AEA005A83AE014F5F5F4F0E948B08F801208135
:101AFA0024FF02C08FEF9FEF2296E4E00C94930D2F
:101B0A002A88398848885F846E847D848C849B8483
:101B1A00AA84B984C884DF80EE80FD800C811B8191
:101B2A00AA81B981CE0FD11DCDBFDEBFED010895C7
:101B3A0090914008E0919728EF5FE770809196288E
:101B4A00E81759F0E0939728F0E0E35AF74D9083AD
:0C1B5A00809195288F5F80939528089556
:101B660080918C288F5F863018F480938C28089596
:101B760010928C2880918B28863019F410928B282D
:0A1B8600089585E080938B280895F0
:101B90000E94D1040E94330E0E948D0E0E94850E79
:101BA0000E94A80B0E943F0E0E94170C0E94CE0BB1
:0A1BB0000E94F20C0E940A0E089534
:101BBA008F938FB78F93EF93FF93E0E4F8E08481DC
:101BCA0080648483FF91EF918F918FBF8F911895D5
:101BDA00613019F0623031F0089580938328909330
:0E1BEA0084280895809381289093822808957E
:101BF80080918D288F5F863018F480938D28089502
:0C1C080010928D2882E080938B280895B4
:101C140040E068ED80E191E00E94DC0EE0E1F1E05B
:0C1C240012828FE18383789480E00895A1
:101C3000FC01AF014F5F5F4F2081222311F0FA01B9
:0C1C4000F8CF9F01281B390BC901089543
:101C4C000E94C20E84EE9EE00E94D20E8FEF9FEF98
:0A1C5C008093360A9093370A08952A
:101C660040E068ED80E890E00E94DC0EE0E8F0E0FD
:081C76001186108680E008953C
:101C7E00E0ECF8E081E280831182128210929128CA
:061C8E00138280E00895BE
:101C9400009741F0E7E8F3E13197F1F700C0000065
:061CA4000197C1F708954D
:101CAA00EC010E94FA0E0E94F90ECE010E94FB0E70
:061CBA00CE010E94EC0EB9
:101CC00068076C094C836A9074A07AC000806888A9
:061CD00000846C8200811B
:101CD600FC01108283E6FB018083FA01108280E01A
:021CE60008955F
:101CE8009C01215631092A31310510F48F75992745
:021CF80008954D
:101CFA008093692890936A2860938E2880E00895DB
:101D0A0040E068ED80E590E00E94DC0E80E00895F6
:101D1A0040E068ED80E091E00E94DC0E80E00895EA
:101D2A009C01215431092A31310508F48062089551
:0E1D3A00E0E4F8E0808182830E94D60C0895D8
:0C1D4800E0E0FAE083858E7F8387089539
:0C1D5400E0E4F8E08681806C868308954E
:0C1D60008F9381E080938A008F9118958A
:0C1D6C00E0E4F1E0808181608083089554
:0C1D7800E0E4F1E080818E7F808308951C
:0C1D8400E0E0FAE080818E7F808308950B
:0A1D90008093772890937828089537
:0A1D9A0080936D2890936E28089541
:0A1DA4008093792890937A2808951F
:0A1DAE000E949A0C80E090E0089576
:081DB800FC0164BF40830895A3
:071DC000286E756C6C290010
:061DC8000E94A40E089524
:061DCE00286E696C29007B
:041DD4000C9400006B
:041DD8000E948500E0
:021DDC00089568
:021DDE00089566
:021DE000089564
:021DE200089562
:021DE400089560
:021DE60008955E
:021DE80008955C
:021DEA0008955A
:021DEC00089558
:021DEE00089556
:021DF000089554
:021DF200089552
:021DF400089550
:021DF60008954E
:101DF800514756476D47734792479547B547BA4786
:101E08005147F30B6D4747089247D80AB547CF09A2
:101E1800030000000000000000000000D70E0000D2
:021E2800F80EB2
:021E2A00F70EB1
:021E2C00F60EB0
:021E2E00F50EAF
:021E30007B0C29
:021E32009D0D04
:021E34008928FB
:02000004008278
:090000000000020000C00700002E
:00000001FF
